:020000040800F2
:100000007005002001010008691500087B0D00083B
:10001000D51400083B0C0008AB25000800000000C8
:10002000000000000000000000000000611A00084D
:100030003F0C000800000000A31800084D1B00083A
:100040001B0100081B0100081B0100081B01000820
:100050001B0100081B0100081B0100081B01000810
:100060001B0100081B0100081B0100081B01000800
:100070001B0100081B0100081B0100081B010008F0
:100080001B0100081B0100081B0100081B010008E0
:100090001B0100081B0100081B0100081B010008D0
:1000A0001B0100081B0100081B0100081B010008C0
:1000B0001B0100081B010008911D00081B0100081E
:1000C0001B0100081B0100081B0100081B010008A0
:1000D0001B0100087D2300081B0100081B0100080C
:1000E0001B0100081B0100081B010008DFF80CD0F1
:1000F00000F030FD00480047253C00087005002056
:100100000648804706480047FEE7FEE7FEE7FEE7B1
:10011000FEE7FEE7FEE7FEE7FEE7FEE7511B00080D
:10012000ED00000870B5064602F080FA0468054646
:100130000A220021304600F0B5FB2C6070BDF0B4FF
:1001400080EA0102D40F4200B2EB410F02D2024614
:10015000084611464A0042D0C30DDDB2C1F3C75272
:10016000AD1A202D35DAC1F3160141F4000204B1B5
:100170005242C5F1200602FA06F12A411044B3EBBF
:10018000D05F23D0C4B1012DA0EBC35009DCF0BC7B
:100190004FF0004202EAC352DBB200F5000000F06B
:1001A000C2BB400000F1807000EBC350A0F1807032
:1001B00040EAD170490009E0490841EAC071A0EB6A
:1001C000C35000F50000400800EBC350F0BC00F045
:1001D000A1BB6142012202EB4101001BF6E7F0BC2A
:1001E000704781F00041AAE780F00040A7E780EA6D
:1001F000010210B502F00043400022D04A001FD097
:10020000010E01EB1261C0F35600C2F3560240F436
:10021000000042F40002A0FB022000047F39140415
:1002200000D0401C50EA124001D44000491EC2B226
:100230000C0604EBD010401C4008802A02D003E0DA
:10024000002010BD20F00100002900DA0020184332
:1002500010BD30B480EA010202F0004530F00042E7
:1002600021F0004013D090B1C30DD40DC2F316019C
:10027000C0F31600E41A41F4000140F400027D349A
:10028000914201D3641C00E04900002C02DA30BC2A
:10029000002070474FF400000023914201D3891AD7
:1002A000034340084FEA4101F7D151B1914202D1D5
:1002B0004FF0004105E002D24FF0010101E06FF084
:1002C000010103EBC450284430BC00F023BB2DE9EE
:1002D000FE4F804681EA0300C00F0C46009021F0DB
:1002E000004123F00045B8EB0200A94105D2404689
:1002F000214690461C460B46024623F00040104320
:1003000047D0270DC7F30A00C3F30A510290401AE1
:10031000019040286BDAC3F3130040F4801B00986F
:10032000924620B10023D2EB030A63EB0B0B01983A
:100330005946C0F14002504600F083FA06460D4689
:1003400050465946019A00F09BFA10EB08006141B3
:10035000002487EA115284EAE7731A4340D0009AD6
:1003600062B3019A012A4FEA075215DC001B61EBC8
:1003700002014FF0004202EA0752CDE90042001CA0
:1003800041F5801132462B4600F00AFB03B0BDE870
:10039000F08F40462146F9E7001B61EB0201001C8B
:1003A00041F5801300185B412018A2F5001747EBB8
:1003B000030140EAD570B6196D4111E06D084FEAAE
:1003C000360645EAC0754FEA0752001B61EB020191
:1003D000001C41F5801149084FEA300000195141D5
:1003E00032462B4603B0BDE8F04F00F0CABA009881
:1003F000012240000023D0EB020263EBE07300987F
:1004000021464FEAE074B8EB000061EB0401E9E734
:1004100083F000435BE781F0004158E72DE9FE4F90
:1004200081EA030404F0004421F0004100944FF0FD
:10043000000B23F0004350EA01045ED052EA0304AB
:100440005BD0C3F30A54C1F30A552C44A4F2F3342D
:100450000194A0FB0254C1F3130141F48011C3F3D2
:10046000130343F4801301FB024400FB034E840A90
:10047000970A44EA815447EA8357A4FB0768029528
:100480008D0A05FB07854FEA932C04FB0C542705C6
:10049000029D4FEA065847EA1637B5EB08056EEBA2
:1004A000070C870E920E47EA811742EA8312A7FBD8
:1004B0000201B6EB0B0164EB00042B0D43EA0C3395
:1004C0005E1844EB1C50DA465146E7FB0201C5F3C7
:1004D00013044FEA0B3343EA14534FEA0432019CEE
:1004E00043EA0603A4F10C040294009CCDE900B495
:1004F00000F056FA03B0BDE8F08F00200146F9E79E
:100500002DE9F04D81EA030404F0004B21F0004591
:1005100014464FF0000A23F0004150EA050220D0B3
:1005200054EA01021DD0C5F30A570246C5F313036E
:10053000C1F31300C1F30A5640F4801543F480134D
:10054000A7EB0608101BD64608F2FD3873EB050032
:1005500002D308F1010801E092185B41B8F1000FE5
:1005600003DA00200146BDE8F08D00204FF4801131
:10057000064684460EE0171B73EB050705D3121BD6
:1005800063EB050306434CEA010C49084FEA3000CF
:1005900092185B4150EA0107EDD152EA030012D0F4
:1005A00082EA040083EA0501084305D0101BAB4131
:1005B00006D20122002306E000224FF0004302E0B1
:1005C0006FF0010253101AEB06004CEB085110EBD0
:1005D0000A0041EB0B01BDE8F04D00F0D2B9C10FAC
:1005E00080EAE0700844CA079623002100F09BB916
:1005F00096230022114600F096B90EB5C10F80EA8D
:10060000E0700844CA07002140F233438DE80E0031
:100610000A460B4600F0C4F903B000BD0EB540F227
:10062000334102910021CDE900110A460B4600F04A
:10063000B7F903B000BD00F0004220F00040C10D4A
:10064000C0F3160040F400007F2901DA0020704753
:10065000962903DCC1F19601C84001E09639884033
:10066000002AF4D04042704720F00040C10DC0F392
:10067000160040F400007F2901DA00207047962917
:1006800003DCC1F19601C840704796398840704735
:1006900070B5C1F30A5201F000450024C1F3130103
:1006A00040F2FF3341F480119A4201DA002070BD1C
:1006B00040F233439A42A2F2334203DC524200F04A
:1006C000CFF800E090402C43F1D0404270BD00F0E4
:1006D000004230F000400AD0C10D01F56071C0F356
:1006E000160042EA0151C20840071143704700203A
:1006F0000146704730B5041E71F1000404DB4FF071
:100700000044404264EB0101141E73F1000405DB58
:100710001C464FF00043524263EB04038B4208BF78
:10072000824230BD30B5041E71F1000404DB4FF08D
:100730000044404264EB0101141E73F1000405DB28
:100740001C464FF00043524263EB0403994208BF3A
:10075000904230BD01F0004330B421F0004150EA36
:10076000010206D00A0DA2F56072C1F31301002A3E
:1007700002DC30BC00207047440F44EAC104C100D1
:10078000E01830BC00EBC25000F0C4B8002801DB18
:10079000C0F10040002901DBC1F1004181427047F6
:1007A000002801DBC0F10040002901DBC1F100415C
:1007B0008842704730B50B460146002020220124B4
:1007C00009E021FA02F59D4205D303FA02F5491B1F
:1007D00004FA02F52844151EA2F10102F1DC30BD35
:1007E0002DE9F05F0546002092469B468846064666
:1007F000814640241BE0284641464746224600F0F9
:100800002FF853465A46C01A914110D31146184644
:10081000224600F016F82D1A67EB01084F462246D3
:100820000120002100F00DF817EB00094E41201EB9
:10083000A4F10104DFDC484631462A464346BDE8C0
:10084000F09F202A04DB203A00FA02F100207047D2
:100850009140C2F1200320FA03F3194390407047FE
:10086000202A04DB203A21FA02F00021704721FA05
:1008700002F3D040C2F1200291400843194670476C
:10088000202A06DBCB17203A41FA02F043EAE07354
:1008900006E041FA02F3D040C2F120029140084341
:1008A000194670472DE9F04791460F4680460446A9
:1008B000002614F8015B2DB100F05EF90068405D80
:1008C000C007F6D12B2D02D02D2D18D0641E4A461C
:1008D0003946204600F054F927B13968A14201D1C8
:1008E000C7F8008071054FF002040BD54042002884
:1008F00003DD01F09BFE0460A007BDE8F08746F42D
:100900008066E4E70028F8DA01F090FE04606FF0FA
:100910000040F2E70029A8BF7047401C490008BF0B
:1009200020F00100704710B4B0FA80FC00FA0CF01F
:1009300050EA010404BF10BC704749B1CCF1200457
:1009400021FA04F411FA0CF118BF012121430843E4
:10095000A3EB0C01CB1D4FEA00614FEA102042BF10
:10096000002010BC704700EBC35010440029A4BF06
:1009700010BC7047401C490008BF20F0010010BCAB
:10098000704710B5141E73F1000408DA401C41F1E1
:10099000000192185B411A4301D120F0010010BD03
:1009A0002DE9F04D92469B4611B1B1FA81F202E079
:1009B000B0FA80F220329046FFF743FF04460F461C
:1009C00040EA0A0041EA0B0153465A46084313D055
:1009D000114653EA010019D0C8F140025046FFF712
:1009E0003FFF05460E46504659464246FFF729FF4F
:1009F000084305D0012004E020463946BDE8F08DCB
:100A00000020054346EAE0762C4337430A98630505
:100A1000E40AA0EB08000022FD0A44EA47540A3029
:100A200002D500200146E9E7010510196941DDE919
:100A3000084500196941BDE8F04DA2E72DE9FE4FD8
:100A4000C3F30A5701F000450024C1F30A56C3F36B
:100A50001303C1F3130143F4801312EB020AA646F9
:100A600041F48011009543EB030CA7F1010B16E054
:100A7000B0EB0A0061EB0C01071E71F1000707DA09
:100A80004FF00008D0EB080085F0004568EB01014D
:100A9000171A73EB0107EBD3761E001849415E4528
:100AA000F6DA50EA010209D0CDE900E5002213464A
:100AB0000296FFF775FF03B0BDE8F08F204600995E
:100AC000F9E7C1F30A52C1F3130140F2FF3341F4D5
:100AD00080119A4202DA00200146704740F2334307
:100AE0009A42A2F2334202DC5242FFF7B9BEFFF74C
:100AF000A8BE70B5044601F000450020054304D1AE
:100B00004FF00045644265EB010103F000452843C6
:100B100005D118464FF00043524263EB0003101B0F
:100B200073EB010002D24FF0004009E082EA0402B8
:100B300083EA01034FF000501A4301D14FF0C04047
:100B40004FEA2062EFF3008162F31F6181F30088B6
:100B500070BD0000064C074D06E0E06840F0010360
:100B600094E8070098471034AC42F6D3FFF7C2FA76
:100B7000784D0008984D0008004870471C4D00084B
:100B80002DE9F05F82460078002715468B460AF172
:100B90000104B946302801D09DB113E014F8010BCF
:100BA0000127782803D0582801D045B10AE00DB1BB
:100BB000102D07D10027102514F8010B02E008259D
:100BC00000E00A250026B0460EE005FB080005FB04
:100BD00006F1012701EB10461FFA80F8B6F5803FB9
:100BE00000D3B94614F8010B294600F018F8002884
:100BF000EBDABBF1000F05D00FB1641E00E05446E4
:100C0000CBF80040B9F1000F06D001F00FFD022132
:100C10000160C81EBDE8F09F48EA0640FAE73A289E
:100C200000D2303820F02002412A01D3A2F137004F
:100C3000884201D34FF0FF30704700BFFEE7704796
:100C40002DE9F04102460025002600200023002463
:100C5000002791F803C00CF00F0591F803C00CF0C9
:100C6000100CBCF1000F03D091F802C04CEA05054E
:100C700091F800C0BCF1000F31D0146800202BE0C7
:100C80004FF0010C0CFA00F3B1F800C00CEA0306B7
:100C90009E4220D183004FF00F0C0CFA03F7BC43A7
:100CA00005FA03FC4CEA040491F803C0BCF1280FD8
:100CB00006D14FF0010C0CFA00FCC2F814C00AE097
:100CC00091F803C0BCF1480F05D14FF0010C0CFAAC
:100CD00000FCC2F810C0401C0828D1D31460B1F841
:100CE00000C0BCF1FF0F34DD546800202EE000F19D
:100CF000080C4FF0010808FA0CF3B1F800C00CEA38
:100D000003069E4221D183004FF00F0C0CFA03F72B
:100D1000BC4305FA03FC4CEA040491F803C0BCF19F
:100D2000280F05D100F1080C08FA0CF8C2F814805D
:100D300091F803C0BCF1480F07D100F1080C4FF047
:100D4000010808FA0CF8C2F81080401C0828CED31D
:100D50005460BDE8F0810246002093680B400BB15F
:100D6000012000E000207047416170470161704739
:100D70000AB1016100E04161704700BFFEE721B1A7
:100D8000028842F48062028004E002884FF6FF335A
:100D90001A400280704770B50246002400250023E7
:100DA0000020958A138B1B0445EA030626F07F4436
:100DB00004EA01068E4201D1012000E0002070BD4E
:100DC00021B1028842F00102028004E002884FF65D
:100DD000FE731A400280704710B504460B488442E7
:100DE00009D10121480500F06DFD00214FF40010EC
:100DF00000F068FD08E00121880500F063FD002196
:100E00004FF4800000F05EFD10BD00000054004073
:100E100021B1028842F48072028004E002884FF619
:100E2000FF631A400280704721B1028842F40072C9
:100E3000028004E002884FF6FF531A400280704798
:100E40002DE9F04385B004460D460026B14604273F
:100E5000DFF8CC80A6884FF6C0700640684600F0E8
:100E600061FDDDF808802F48B8FBF0F01FFA80F92B
:100E700046EA0906A68020884FF6FE7108402080C9
:100E800000262949286888420CD828684000B8FB09
:100E9000F0F087B2042F00DA04273E4309F1010085
:100EA000208427E0E8884BF6FF71884206D1286845
:100EB00000EB4000B8FBF0F087B209E0286800EBD7
:100EC000C00101EB0010B8FBF0F087B247F4804797
:100ED000C7F30B0008B947F0010747F40040064389
:100EE0004FF4967009FB00F04FF47A7190FBF1F02B
:100EF000401C2084A683208840F0010020802688A2
:100F00004FF6F5300640A8886989084306432680D5
:100F1000A88929890843208105B0BDE8F083000035
:100F200000127A0040420F00A086010030B585B063
:100F300005460C460121082000F0D4FC27488542D4
:100F400015D10121480500F0ADFCC020ADF810001E
:100F50001C208DF8130003208DF8120004A92048EE
:100F6000FFF76EFEC0211E48FFF700FF16E00121CB
:100F7000880500F097FC4FF44060ADF810001C208D
:100F80008DF8130003208DF8120004A91448FFF710
:100F900057FE4FF440611248FFF7E8FE2846FFF77E
:100FA0001BFF0020ADF804004BF6FF70ADF8060003
:100FB0000020ADF808004FF48060ADF80A00000191
:100FC000ADF80C00009469462846FFF739FF01216F
:100FD0002846FFF7F5FE05B030BD00000054004084
:100FE000000C01400146088AC0B2704712B141F0BE
:100FF000010102E04FF6FE73194001827047018241
:10100000704700002DE9F04104464FF6FF75208837
:1010100040F48070208009E0281EA5F1010505D16B
:1010200040A001F0F3FA0020BDE8F081A08A00F0B2
:1010300001000028F0D06C2020824FF6FF7508E0F8
:10104000281EA5F1010504D136A001F0DFFA002029
:10105000EAE7A08A00F002000228F1D1268B0C20DA
:10106000208200BFA08A00F004000428FAD1208862
:1010700040F4006020804FF6FF75208840F48070B7
:10108000208008E0281EA5F1010504D125A001F06B
:10109000BDFA0020C8E7A08A00F001000028F1D0C6
:1010A0004FF6FF756D20208208E0281EA5F101058E
:1010B00004D11CA001F0AAFA0020B5E7A08A00F034
:1010C00002000228F1D172B6268B20884FF6FF313C
:1010D0000840208062B600BFA08A00F00400042807
:1010E000FAD172B601212046FFF79EFE208AC7B2D0
:1010F00062B6208A00F0FF0800BF208800F400706C
:10110000B0F5007FF9D0208840F4806020802088EE
:101110004FF2FF7108402080701C86B208EB072058
:1011200080B281E74932435F676574526177436FEC
:10113000756E74206661696C6564200D0A0000009C
:1011400000210160704710B504467520E16A00F087
:101150003BF810BD70B504460D462A4601216B20B0
:1011600000F074F92A4600216C2000F06FF92A463D
:101170000021192000F06AF92A4600211A2000F007
:1011800065F92A4610211B2000F060F92A4600214B
:101190001C2000F05BF90848A0604FF06250E0604E
:1011A00006482060064860600020E061A0620548B3
:1011B000A061E56270BD000058A00B3A0AD7A33CBD
:1011C00048E17A3F1B2FDD3C70B504460D460121F6
:1011D0002846FFF71DFE1F49284600F015F900229A
:1011E000D0212846FFF702FF1B49284600F00CF9E2
:1011F00021462846FFF703FF1749891C284600F0BF
:1012000003F901212846FFF703FE1249284600F0A2
:10121000FBF80122D0212846FFF7E8FE0D49491CC2
:10122000284600F0F1F800212846FFF7A8FD01212B
:101230002846FFF7F9FD07493F31284600F0E4F85A
:101240002846FFF7CFFE064601212846FFF797FD07
:10125000304670BD01000300820007002DE9F04F09
:1012600085B00446614B0C223B20E16A02F072FC1F
:101270005E4840785D49097840EA012000B220824A
:101280005A48C0785949897840EA012000B2608202
:10129000564840795549097940EA012000B2A082B8
:1012A0005248C07A5149897A40EA012000B2E0826E
:1012B0004F480568A06AA84211D94E4AA16A12682F
:1012C000511A4819FFF7AAF94B4A4C4BCDE90201D4
:1012D000FFF7A4F80746FFF73DFA06460DE0A16ABE
:1012E000681AFFF79BF9444A444BCDE90201FFF726
:1012F00095F80746FFF72EFA064600213046FFF71D
:1013000045FA08D93046FFF7E2F9074600223C4B80
:10131000FFF708FA00D23B4EA562B4F91000FFF7C0
:101320005EF90746E168FEF762FF8346B4F91200F2
:10133000FFF755F90746E168FEF759FF8146B4F912
:101340001400FFF74CF90746E168FEF750FF8246AC
:1013500000215046FFF724FA02D24FF0FF3000E0A0
:101360000120049049464846FEF741FF514601904E
:101370005046FEF73CFF00900199FEF7E0FE029018
:1013800002F0ECF880460498FFF729F941460390F3
:10139000FEF72DFF07463946584601F067F96062AF
:1013A000B4F91600FFF71BF98046A168FEF71FFF8E
:1013B0000746A169FEF715FF2062616A2068FEF703
:1013C00016FF03903146206AFEF711FF0290E16993
:1013D000FEF7B5FE80466168FEF709FF07460399F0
:1013E000FEF7ADFEE06105B0BDE8F08F40010020E2
:1013F0001400002018000020F168E388B5F8E43EEE
:101400000000E03F6F12833A70B505460E4642F287
:10141000107405E0641E1CB905A001F0F7F805E0A2
:1014200031462846FFF7B7FC0128F3D100BF70BD55
:101430004D5055363035305F576169744576656E6D
:1014400074206661696C6564200D0A0070B50446FD
:101450000E46154601212846FFF7DAFC11492846B9
:10146000FFF7D2FF0022D0212846FFF7BFFD0E492B
:101470002846FFF7C9FF21462846FFF7C0FD0A4965
:10148000891E2846FFF7C0FF31462846FFF7B7FD03
:101490000549891C2846FFF7B7FF01212846FFF7B9
:1014A000C3FC70BD01000300820007002DE9F0417C
:1014B00004460F4616461D462771A660002060614F
:1014C0002846FFF79FFDE060002020612060A561B5
:1014D000BDE8F08100BFFEE710B50446218B6069CE
:1014E000FFF744FC10BD00002DE9FE4F04460E46F8
:1014F00091469A46DDE910B526774846FFF7E7F8AA
:1015000007463A460B4600201649FEF7F9FFCDE99B
:101510000001FFF71FF92060C4F804A00C98FFF742
:101520008AF8A0600D9820730E982061C4F814B05A
:1015300025831298608301210F9800F0D3F9ADF84C
:10154000085010208DF80B0001208DF80A0002A928
:101550005846FFF775FB29465846FFF705FCBDE8DE
:10156000FE8F00000000F03F704700001FB519A17A
:1015700003C9CDE9020100200090019001F02EF88E
:10158000012001F037F8002001F012F8052202A92D
:10159000302000F012F905226946102000F0E0F832
:1015A0009DF80000112812D19DF8010022280ED1CB
:1015B0009DF8020033280AD19DF80300442806D183
:1015C0009DF80400552802D1002004B010BD012070
:1015D000FBE70000112233445500000070B50446BB
:1015E000072000F0D9F805462946272000F001F928
:1015F00005F0400098B1012000F0DAFF20222146DA
:10160000612000F0ADF8FF21E22000F0F2F80120A7
:1016100000F0CEFF962001F0FBFF002070BD0120FE
:10162000FCE710B500F0E8F910BD10B500F008F8BF
:1016300000BFFFF79BFF0028FBD100F05BF810BD57
:1016400008B501210C2000F04DF910208DF80300A1
:101650000002ADF8000003208DF80200694623481F
:10166000FFF7EEFA10208DF803004002ADF80000FD
:1016700003208DF8020069461C48FFF7E1FA1020AC
:101680008DF803008002ADF8000003208DF8020001
:1016900069461648FFF7D4FA2020ADF80000102064
:1016A0008DF8030003208DF8020069460F48FFF70C
:1016B000C7FA48208DF803004FF40040ADF8000051
:1016C00003208DF8020069460848FFF7B9FA4FF485
:1016D0008070ADF8000048208DF8030003208DF8DD
:1016E000020069460248FFF7ABFA08BD000C014052
:1016F0000008014010B5002000F05AFF20213120E1
:1017000000F077F8FF21E22000F073F8052212497B
:10171000302000F052F8052210492A2000F04DF840
:101720000121212000F065F80121222000F061F85C
:101730001A21242000F05DF80021252000F059F83E
:101740000F21262000F055F80F21202000F051F83D
:10175000012000F02DFF10BD6C4900087149000800
:101760002DE9F04107460D461646002000F042FFE5
:10177000384600F055F98046002405E0FF2000F0CF
:101780004FF92855601CC4B2B442F7DB012000F0C9
:1017900031FF4046BDE8F08170B50446002000F0FE
:1017A00029FF204600F03CF9FF2000F039F90546FA
:1017B000012000F01FFF284670BD2DE9F0410746CB
:1017C0000C461546002000F015FF384600F028F9B9
:1017D0008046002605E014F8010B00F021F9701C8A
:1017E000C6B2AE42F7DB012000F004FF4046BDE880
:1017F000F08170B505460C46002000F0FBFE28463F
:1018000000F00EF90646204600F00AF9012000F02B
:10181000F1FE304670BD000070B5002100230F229C
:10182000C47804B3154C246804F4E064C4F5E0649F
:10183000210AC1F10403CA40447804FA03F1847810
:101840001440214309010E4C0678A155047804F098
:101850001F050124AC4005786D11AD0005F1E025B0
:10186000C5F8004109E0047804F01F050124AC40EC
:10187000044D0678761145F8264070BD0CED00E069
:1018800000E400E080E100E070B5DDE904450160BE
:1018900042608360C460056100268661C66106629D
:1018A00070BD704729B1064AD2690243044BDA6120
:1018B00004E0034AD2698243014BDA6170470000B9
:1018C0000010024029B1064A12690243044B1A6112
:1018D00004E0034A12698243014B1A617047000019
:1018E0000010024029B1064A92690243044B9A61F2
:1018F00004E0034A92698243014B9A6170470000F9
:101900000010024029B1064AD2680243044BDA6053
:1019100004E0034AD2688243014BDA60704700005A
:101920000010024030B500210022002400232D4D7C
:101930006D6805F00C0121B1042905D0082923D1D7
:1019400005E0294D056022E0274D05601FE0254D8B
:101950006D6805F47012234D6D6805F4803402251E
:1019600005EB92421CB9214D554305600BE01D4D1E
:101970006D6805F400351DB11C4D5543056002E04E
:10198000194D5543056002E0174D056000BF00BFCB
:10199000144D6D6805F0F0010909154D6B5C056883
:1019A000DD4045600F4D6D6805F4E061090A104D9A
:1019B0006B5C4568DD4085600A4D6D6805F46051DB
:1019C000C90A0B4D6B5C4568DD40C560054D6D680F
:1019D00005F44041890B074D6B5CC568B5FBF3F519
:1019E000056130BD0010024000127A0000093D0080
:1019F000000000201000002010B54FF48071024854
:101A0000FFF7A9F910BD00000008014010B54FF420
:101A100000410248FFF79FF910BD0000000C014093
:101A200070B50446002517E004F08000802803D13B
:101A3000012000F0C7FD02E0002000F0C3FD6006B9
:101A4000040E012000F0CAFDFFF7E0FF0443002070
:101A500000F0C4FD681CC5B2082DE5DB204670BD52
:101A6000704710B500F002F810BD00000CB5002062
:101A7000019000903348006840F48030314908609C
:101A800000BF3048006800F4003000900198401C0E
:101A90000190009818B90198B0F5A06FF1D12948CC
:101AA000006800F4003010B10120009001E0002037
:101AB00000900098012843D12348006840F01000AE
:101AC000214908600846006820F0030008600846C5
:101AD000006840F0020008601A48406819494860F0
:101AE0000846406848600846406840F480604860A6
:101AF0000846406820F47C1048600846406840F47E
:101B0000E81048600846006840F08070086000BF38
:101B10000C48006800F000700028F9D009484068BF
:101B200020F00300074948600846406840F0020082
:101B3000486000BF0348406800F00C000828F9D155
:101B40000CBD000000100240002002407047000061
:101B500010B51348006840F00100114908600846BC
:101B60004068104908400E494860084600680E4920
:101B700008400B4908600846006820F4802008608F
:101B80000846406820F4FE0048604FF41F0088605B
:101B9000FFF767FF4FF000600449086010BD0000C8
:101BA000001002400000FFF8FFFFF6FE08ED00E025
:101BB00010B588B0044601210420FFF793FE0121EF
:101BC0000846FFF76FFE0720ADF81C0018208DF8BF
:101BD0001F0003208DF81E0007A92448FFF730F8E6
:101BE0004FF0804000F006F90020ADF81000601EB4
:101BF00080B2ADF814002020ADF812000020ADF83E
:101C0000160004A94FF0804000F066FB6020ADF89C
:101C100000000120ADF802000020ADF80600ADF88C
:101C2000080069464FF0804000F0F2F969464FF035
:101C3000804000F043FA69464FF0804000F09EFA81
:101C40000821C80600F030FA0821C80600F088FA1A
:101C50000821C80600F0E2FA0121880700F0AEF87A
:101C60000121880700F0B9F808B010BD0008014054
:101C700010B588B0044601210C20FFF733FE012186
:101C80000220FFF70FFE18208DF81F0003208DF8AB
:101C90001E008020ADF81C0007A92548FEF7D0FFE4
:101CA0000320ADF81C0007A92248FEF7C9FF22480F
:101CB00000F0A0F80020ADF81000601E80B2ADF872
:101CC00014002020ADF812000020ADF8160004A981
:101CD000194800F001FB6020ADF800000120ADF8CC
:101CE00002000020ADF80600ADF808006946124871
:101CF00000F0E4F96946104800F040FA69460E48E1
:101D000000F096FA08210C4800F02AFA08210A4847
:101D100000F084FA0821084800F0C8FA01210648BA
:101D200000F04CF80121044800F057F808B010BD4D
:101D300000080140000C0140000400401FB50121D3
:101D40000420FFF7AFFD1E208DF8000001208DF864
:101D500003006846FFF760FD4720ADF80400092046
:101D6000ADF808000020ADF80600ADF80A0001A9A2
:101D7000064800F0B1FA01221146044800F03FF98C
:101D80000121024800F029F81FBD000000080040B2
:101D900010B50121074800F021F9012804D10648B7
:101DA0000068401C044908600121024800F012F854
:101DB00010BD0000000800401400002021B102887E
:101DC00042F08002028004E002884FF67F731A40DE
:101DD00002807047CA430282704721B1028842F0F4
:101DE0000102028004E002884FF6FE731A4002806E
:101DF0007047000010B504466848844208D10121AC
:101E0000C014FFF77FFD0021E014FFF77BFDC4E065
:101E1000B4F1804F08D101210846FFF753FD00219E
:101E20000120FFF74FFDB8E05D48844208D1012151
:101E30000220FFF747FD00210220FFF743FDACE041
:101E40005848844208D101210420FFF73BFD0021BE
:101E50000420FFF737FDA0E05348844208D1012158
:101E60000820FFF72FFD00210820FFF72BFD94E04D
:101E70004E48844208D101211020FFF723FD0021A4
:101E80001020FFF71FFD88E04948844208D1012156
:101E90002020FFF717FD00212020FFF713FD7CE035
:101EA0004448844208D101214014FFF72BFD002152
:101EB0006014FFF727FD70E03F48844209D10121FB
:101EC000C804FFF71FFD00214FF40020FFF71AFDA3
:101ED00063E03A48844209D101210805FFF712FD69
:101EE00000214FF48010FFF70DFD56E03448844286
:101EF00009D101214805FFF705FD00214FF400102D
:101F0000FFF700FD49E02F48844208D1012140201D
:101F1000FFF7D8FC00214020FFF7D4FC3DE02A4821
:101F2000844208D101218020FFF7CCFC00218020D1
:101F3000FFF7C8FC31E02548844208D10121801513
:101F4000FFF7C0FC0021A015FFF7BCFC25E02048EE
:101F5000844209D101210804FFF7D4FC00214FF489
:101F60008030FFF7CFFC18E01A48844209D10121E4
:101F70004804FFF7C7FC00214FF40030FFF7C2FC14
:101F80000BE01548844208D101218804FFF7BAFC10
:101F900000214FF48020FFF7B5FC10BD002C01405C
:101FA0000004004000080040000C00400010004009
:101FB0000014004000340140004C0140005001403A
:101FC0000054014000180040001C00400020004068
:101FD00000400140004401400048014030B5024645
:101FE000002000230024158A05EA0103958905EAEB
:101FF000010413B10CB1012000E0002030BD1AB182
:1020000083890B43838102E083898B4383817047FB
:1020100070B5002400220023058C4FF6FE76354073
:102020000584028C8388048B4FF68F752C40B51E77
:102030002C400D882C43751E2A400D892A434D885B
:102040002A43144DA8420BD0134DA84208D0134D7B
:10205000A84205D0124DA84202D0124DA84213D179
:102060004FF6F7752A404D892A434FF6FB752A40F3
:102070008D882A434FF6FF652B404FF6FF552B40C6
:102080008D892B43CD892B4383800483CD8885861E
:10209000028470BD002C014000340140004001402A
:1020A00000440140004801400A460021018B4FF6E0
:1020B000F7731940114301837047000070B5002485
:1020C00000220023058C4FF6EF7635400584028C04
:1020D0008388048B48F6FF752C404FF6FF452C4053
:1020E0000D884FF6FF7606EA05252C434FF6DF757F
:1020F0002A400D8906EA05152A434D8806EA05158A
:102100002A43154DA84202D0144DA8421DD14FF6C6
:102110007F752A404D894FF6FF7606EA05152A435A
:102120004FF6BF752A408D8806EA05152A434FF6FB
:10213000FF352B404FF2FF752B408D8906EA850550
:102140002B43CD8906EA85052B4383800483CD8804
:102150000587028470BD0000002C0140003401405E
:102160000A460021018B4FF2FF7319404FF6FF73AF
:1021700003EA0223194301837047000070B500246D
:1021800000220023058C4FF6FF6635400584028C43
:102190008388848B4FF68F752C404FF6FC752C404E
:1021A0000D882C434FF6FF552A400D894FF6FF76D8
:1021B00006EA05252A434D8806EA05252A43154DDA
:1021C000A84202D0144DA8421DD14FF2FF752A40FB
:1021D0004D894FF6FF7606EA05252A434FF6FF356F
:1021E0002A408D8806EA05252A434EF6FF752B40C6
:1021F0004DF6FF752B408D8906EA05152B43CD89D9
:1022000006EA05152B4383808483CD888587028465
:1022100070BD0000002C0140003401400A4600213E
:10222000818B4FF6F773194011438183704700008B
:1022300070B5002200230024058C4EF6FF76354051
:102240000584038C8488828B48F6FF752A404FF6FC
:10225000FF452A400D884FF6FF7606EA05252A43FA
:102260004DF6FF752B400D8906EA05352B434D8849
:1022700006EA05352B430B4DA84202D00A4DA84271
:1022800008D14BF6FF752C408D894FF6FF7606EA94
:1022900085152C4384808283CD88A0F84050038428
:1022A00070BD0000002C0140003401400A460021AE
:1022B000818B4FF2FF7319404FF6FF7303EA02233D
:1022C00019438183704781867047018770478187F2
:1022D0007047A0F840107047002202881D4B9842BA
:1022E0000ED01D4B98420BD0B0F1804F08D01B4B45
:1022F000984205D01A4B984202D01A4B984204D10A
:102300004FF68F731A404B881A43174B984207D0E9
:10231000164B984204D04FF6FF431A40CB881A431D
:1023200002808B8883850B8803850A4B98420BD0EB
:10233000094B984208D00E4B984205D00D4B98425D
:1023400002D00D4B984201D10B7A03860123838280
:1023500070470000002C01400034014000040040A0
:1023600000080040000C0040001000400014004035
:1023700000400140004401400048014010B540F2D7
:102380002551204800F050F800283AD01D4800F0B0
:1023900007F9C4B21C48008800F40040F8B91A4894
:1023A000008800F4804090B10A2C03D00020164928
:1023B000088026E01448008840F400401249088054
:1023C00000200988C1F30D01104A505419E00D2C6A
:1023D00006D10D48008840F480400B49088010E089
:1023E00009480088C0F30D0008490C5406480088CD
:1023F000401C0549088008460088FF2801DD0020B0
:10240000088010BD0038014020000020400000205E
:1024100021B1828942F40052828104E082894DF622
:10242000FF731A408281704770B502460024002372
:102430000025002040F66A16B14200D100BFC1F36A
:10244000421501F01F03012606FA03F3012D02D104
:102450009689334006E0022D02D1168A334001E00E
:10246000968A33400C12012606FA04F4168834408A
:1024700013B10CB1012000E0002070BDF0B503469F
:10248000002400260025002040F66A17B94200D13A
:1024900000BF1846C1F3421401F01F06012707FAD6
:1024A00006F5012C01D10C3004E0022C01D11030D2
:1024B00000E014301AB107682F43076002E0076894
:1024C000AF430760F0BD00002DE9F04786B0054638
:1024D0000E460024A24600BFA1460027B08900B1E5
:1024E00000BF2F462C8A4CF6FF700440F08804434E
:1024F0002C82AC894EF6F3100440B0883189084331
:10250000718908430443AC81AC8A4FF6FF40044014
:10251000B0890443AC8201A8FFF704FA1F48874240
:1025200002D1DDF810A001E0DDF80CA0A88900F4CC
:10253000004040B10AEBCA0000EB0A1031684900C4
:10254000B0FBF1F807E00AEBCA0000EB0A103168B3
:102550008900B0FBF1F86420B8FBF0F00401200919
:10256000642101FB1089A88900F4004040B13220A9
:1025700000EBC900B0FBF1F000F00700044308E0F5
:10258000322000EB09106421B0FBF1F000F00F00E5
:1025900004432C8106B0BDE8F087000000380140FC
:1025A00001468888C0F30800704700BFFEE70000BE
:1025B00010B50446224620210148FEF7D9FB10BD84
:1025C000000C014010B5044622464FF480410248F9
:1025D000FEF7CEFB10BD0000000C014010B5044614
:1025E00022464FF400510248FEF7C2FB10BD000026
:1025F000000C014010B5044622464FF480510248B9
:10260000FEF7B6FB10BD0000000C01400FB4054BF7
:1026100010B503A9044A029800F0BCFA10BC5DF89A
:1026200014FB00002D3800081C00002000487047F3
:102630003C0000200022134610461146FDF760BF03
:1026400002E008C8121F08C1002AFAD1704770477B
:10265000002001E001C1121F002AFBD170470000D9
:1026600001490860704700003C0000202DE9F34F4D
:1026700089B00D460998FEF72AF821F00041074677
:10268000FEF768F881462846FEF721F821F0004160
:102690000746FEF75FF8064600212846FEF776F863
:1026A00001D2012000E00020870000210998FEF7F8
:1026B0006DF801D2012000E0002007EB40074946F9
:1026C0003046FEF763F801D8012000E000203C18F6
:1026D000082C7DD2DFE804F00434688EB7E0FDFCFE
:1026E00000212846FEF752F808D100210998FEF78C
:1026F0004DF803D100200BB0BDE8F08F31464846BD
:10270000FDF7A7FD08900898FDF7E1FFCDE904016A
:102710000898FDF7DCFF9F4A9F4BCDE90201FDF7CA
:102720007DFE82469D4A9E4BFDF775FE0746DDE91C
:102730000423FDF773FECDE90601FEF70BF8DAE797
:1027400000212846FEF722F806D100210998FEF75D
:102750001DF801D10020CEE749463046FDF779FD4E
:1027600008900898FDF7B3FFCDE904010898FDF73C
:10277000AEFF884A884BCDE90001FDF74FFE874A3E
:10278000874BCDE90201FDF746FE0746DDE904234C
:10279000FDF744FE834A844BCDE90601FDF73BFE7D
:1027A0008246FDF7D7FFA6E731464846FDF751FDC3
:1027B00008900898FDF78BFFCDE904010898FDF714
:1027C00086FF744A744BCDE90201FDF727FE00E055
:1027D000DEE00746714A724BFDF71DFE81F00041B5
:1027E0008246DDE90423FDF719FECDE90601FDF778
:1027F000B1FF80E749463046FDF72BFD0890089869
:10280000FDF765FF074688460898FDF760FF614AB7
:10281000614BCDE90001FDF701FE604A604BCDE957
:102820000201FDF7F8FD82463A464346FDF7F6FD04
:102830005C4A5E4BCDE90401FDF749FDCDE9060197
:10284000FDF788FF57E731464846FDF702FD08903F
:102850000898FDF73CFF074688460898FDF737FFC4
:1028600082464C4A4C4BFDF7D9FD4C4A4C4BCDE9C6
:102870000001FDF7D0FD3A464346CDE90201FDF7E0
:10288000CDFD4B4A4B4BCDE90401FDF7C4FDCDE92D
:102890000601FDF75FFF2EE749463046FDF7D9FCFC
:1028A00008900898FDF713FFCDE902010898FDF79D
:1028B0000EFF8246374A384BFDF7B0FD0746374AD0
:1028C000374BFDF7A8FDCDE90001DDE9022301E06A
:1028D00035E00CE0FDF7A2FD324A334BCDE90401AF
:1028E000FDF7F5FCCDE90601FDF734FF03E73146BE
:1028F0004846FDF7AEFC08900898FDF7E8FECDE9E4
:1029000002010898FDF7E3FE0746224A224BFDF735
:1029100085FD8246214A224BFDF77DFDCDE9000170
:10292000DDE90223FDF77AFD214A234BCDE90401BD
:10293000FDF7CDFCCDE90601FDF70CFFDBE64946CE
:102940003046FDF786FC08900898FDF7C0FE8246E9
:102950008B460898FDF7BBFE0E4A0F4BCDE90001F0
:10296000FDF75CFD07460D4A0D4BFDF754FD524641
:102970005B46CDE90201FDF751FD0A4A0B4BCDE95B
:102980000401FDF748FDCDE90601FDF7E3FEB2E6DF
:102990000020B0E646B6F3FDD478D13F1E049FE98F
:1029A00032EFF03FF4D64354FB21F93FFB21F9BF4E
:1029B000EA2E4454FB210940FB2109C02DE9FF5FA9
:1029C00082B00021DDE90430020DDDF840B00343A0
:1029D00018D044F61050A2F2FF3242431514119859
:1029E00001281FD0A5EB0B00401C5FEA000A4FF046
:1029F00000064E4FDFF83891B046504615D5CAF163
:102A0000000413E0119801244AA3012801D16FEAC0
:102A10000B010298119AC0E90031C0E9024206B0E8
:102A2000BDE8F09FCBF10000DFE704460021404AFB
:102A3000491842EB0450CDE9001012E0E00707D03E
:102A400032463B4640464946FDF7E8FC804689460B
:102A500032463B4610461946FDF7E0FC06460F4657
:102A60006410002CEAD1DDE90401DDE90023BAF1AC
:102A7000000F06DAFDF7D2FC42464B46FDF7CEFCCE
:102A800005E0FDF73DFD42464B46FDF739FD0446A6
:102A90000E460022284BFDF745FE03D84FF0FF30CD
:102AA000014607E00022254B20463146FDF70FFC8A
:102AB000FEF707F8102409E0002C0ADB0A220023A5
:102AC000FDF78EFE039B30321A55641E50EA010258
:102AD000F2D1641C039AC4F111031444119A012A1F
:102AE00003D0012208430DD10AE0084304D000209E
:102AF0004FF0110B119072E7A3EB0B056D1E0DE06B
:102B00005B4504DD4FF0000205F1010504E003DA46
:102B10004FF00002A5F10105002AECD002981199AE
:102B2000C0E90231C0E9004579E700000000144027
:102B30000000F03F300000000000F0430000E03FE4
:102B40002DE9F04706463046FDF7C1FD07460F4A1E
:102B50000F4B00F021FE0446FDF7FCFD81460021ED
:102B60004846FDF71DFE03D84846FDF7B0FD07E0D7
:102B70004846FDF7ACFD0746044A054BFDF7A7FBA9
:102B80000446FDF7E7FDBDE8F0870000EA2E445457
:102B9000FB2119402DE9FF4F95B09B46894606461B
:102BA00000250FE2252877D100242746F84A012185
:102BB000059400E0044316F8013F203B01FA03F0BE
:102BC0001042F7D130782A2811D06FF02F033078D7
:102BD000A0F13002092A16D8059A44F0020402EB4B
:102BE000820203EB42021044761C0590EFE759F88D
:102BF000042B0592002A03DA504244F40054059055
:102C000044F00204761C30782E2816D116F8010FF5
:102C100044F004042A280DD06FF02F023078A0F180
:102C20003003092B09D807EB870302EB4303C718CE
:102C3000761CF3E759F8047B761C30786C280FD0AB
:102C400006DC4C2817D068280DD06A2814D104E07F
:102C5000742810D07A280FD10DE044F400140AE053
:102C600044F4801401E044F440147278824202D1AA
:102C700004F58014761C761C307866280BD013DCA3
:102C8000582877D009DC002875D04528F6D046288A
:102C9000F4D047281AD19DE118E0632835D0642884
:102CA00079D0652812D195E1702873D008DC6728A7
:102CB000F1D069286FD06E280DD06F2806D1B5E00D
:102CC00073282CD0752875D0782874D05A46179957
:102CD00090476D1C75E1C4F30250022809D0032807
:102CE0000DD0D9F8001004280DD00D6009F10409A9
:102CF00067E1D9F80010EA17C1E90052F6E7D9F800
:102D000000100D80F2E70D70F0E719F8041B8DF844
:102D1000001000208DF80100EA46012003E059F878
:102D200004AB4FF0FF3061074FF0000102D40DE01B
:102D300008F101018846B9420FDA8045F8DB1AF83C
:102D400008100029F4D108E008F101018846814209
:102D5000FADB1AF808100029F6D105985B46A0EBBB
:102D6000080721463846179A00F094FA284400EBE9
:102D7000080507E04DE029E10DE01AF8010B5A467D
:102D800017999047B8F10108F7D25B4621463846BB
:102D9000179A13E142E00A220092C4F302524FF064
:102DA000000A022A08D059F804CB032A4FEAEC7132
:102DB0000AD00DE029E02AE009F1070121F007021D
:102DC000F2E802C1914609E00FFA8CFC4FEAEC717F
:102DD000042A03D14FFA8CFC4FEAEC71002907DA80
:102DE0000A460021DCF1000C61EB02012D2202E019
:102DF000220504D52B228DF80420012203E0E207EE
:102E000001D02022F7E7904659E00A2102E0102283
:102E10000DE010214FF0000A00910BE010224FF05E
:102E2000000A44F004040827009203E008224FF04F
:102E3000000A0092C4F30252022A05D059F804CBCA
:102E40000021032A08D009E009F1070121F0070257
:102E5000F2E802C1914605E01FFA8CFC042A01D178
:102E60000CF0FF0C4FF00008220728D5702806D080
:102E7000009B83F0100353EA0A0305D00EE04022C2
:102E80008DF80420012208E05CEA010206D030221D
:102E90008DF804208DF8050002229046009B83F0F7
:102EA000080353EA0A030AD15CEA010201D162076E
:102EB00005D530228DF804204FF001087F1E5828D8
:102EC00004D034A003900EA802900DE036A0F9E7DC
:102ED00053466046009AFDF783FC84460398825C63
:102EE0000298401E029002705CEA0100F0D1029844
:102EF00006A9081A00F1200A600702D524F48034DC
:102F000000E00127574502DDA7EB0A0000E00020A2
:102F100000EB0A01009005984144401A0590E00337
:102F200006D45B462146179A059800F0B3F905448C
:102F3000002706E001A85A46C05D179990476D1C0E
:102F40007F1C4745F6DBE0030CD55B462146179A0C
:102F5000059800F09FF9054404E030205A4617997F
:102F600090476D1C0099481E00900029F5DC08E090
:102F7000029802995A460078491C02911799904785
:102F80006D1CBAF10001AAF1010AF1DC65E1000053
:102F9000092801003031323334353637383961622F
:102FA00063646566000000003031323334353637F3
:102FB00038394142434445460000000000F058F9CA
:102FC0000544761C307800287FF4ECAD19B0284613
:102FD000BDE8F08F620700D4062709F1070222F04E
:102FE000070CFCE80223E14603F000485FEA080C06
:102FF00002D00FF2702C0DE05FEA045C02D50FF2F4
:10300000682C07E05FEAC47C02D00FF2602C01E07C
:10301000AFF2700C4FF0FF3823F00043CDF850C0F2
:1030200065280CD006DC452809D046281DD0472845
:103030003DD13DE0662818D067287ED138E00021D8
:10304000112F01DB112000E0781CCDE9000106A959
:103050000EA8FFF7B3FCDDE90F010E9A03910021E2
:10306000009207F1010A04914DE04FF000400097F3
:10307000CDE9011006A90EA8FFF7A0FCDDE90F02BB
:1030800003920E9B11990022DDF80CA0009304928C
:1030900011B9791C00EB010AB7EB0A0004D4C0F1A6
:1030A000FF3007F1010A0490AAEB0700019044E009
:1030B000012F00DA01270021112F01DD112000E08E
:1030C0003846CDE9000106A90EA8FFF777FCDDE937
:1030D0000F010E9A0391002104910092BA46210734
:1030E0000CD40399514500DA8A46BAF1010F05DD87
:1030F000009AAAF10101515C302908D0B84202DAE5
:1031000010F1040F06DA0121CDE9011015E0AAF152
:103110000101E9E7002805DC049901440491AAEBC8
:10312000000102E0411C514500DD8A460499401A25
:10313000401C01904FF000400290200704D40198F9
:10314000504501DBCDF8048000208DF84F00029837
:103150000DF14F07B0F1004F25D02B200E900298B3
:103160004FF0020800280CDA404202902D200E9009
:1031700007E00A210298FDF71DFB3031029007F8A5
:10318000011DB8F10001A8F10108F2DC0298002845
:10319000EFD1791E0E980870307800F0200040F0D2
:1031A000450007F8020D12A8C01B00F1070814988B
:1031B000007800B1012000EB0A01019801EBE071F9
:1031C00005984144401A401E0590E00306D45B4632
:1031D0002146179A059800F05DF805441498007888
:1031E00018B15A46179990476D1CE00324D55B46E9
:1031F0002146179A059800F04DF805441CE0049804
:10320000002807DBDDE90301884203DD0098405C0C
:10321000179901E0179930205A469047049805F114
:103220000105401C04900198401E019004D12E20FD
:103230005A46179990476D1CBAF10001AAF1010A8C
:10324000DDDC05E017F8010B5A46179990476D1C15
:10325000B8F10001A8F10108F4DC5B462146179A99
:103260000598ABE62D0000002B00000020000000B8
:103270002DE9F041044600251E461746880404D473
:1032800005E039462020B0476D1C641EF9D528465C
:10329000BDE8F0812DE9F041044600251E46904628
:1032A000C80301D5302700E02027880404D505E0B5
:1032B00041463846B0476D1C641EF9D52846BDE826
:1032C000F08100002DE9FF5F83465846FDF7FFF9C6
:1032D0000446954A954BFDF70DFA44D25846FDF742
:1032E000F6F9934A934BCDE90201FDF797F8804632
:1032F00000221346FDF716FA12D85846FDF7E7F9F3
:1033000080468B4A8B4BFDF789F800228A4BCDE92A
:103310000001FCF7DCFFCDE90201FDF7B9F911E08E
:103320005846FDF7D4F9824A824BCDE90001FDF7FA
:1033300075F80022804BCDE90201FDF769F880465F
:10334000FDF7A6F97D4951F820A05046FDF755F943
:1033500006467B4A7B4BFDF761F80446FDF7FAF918
:1033600004B0BDE8F09F5846FDF7B1F90446764A2F
:10337000764BFDF7BFF944D25846FDF7A8F96C4AE1
:103380006C4BCDE90201FDF749F880460022134657
:10339000FDF7C8F912D85846FDF799F9644A654B0C
:1033A000CDE90001FDF73AF80022634BCDE90201B7
:1033B000FCF78DFF8046FDF76BF911E05846FDF7ED
:1033C00086F95B4A5B4BCDE90001FDF727F8002247
:1033D000594BCDE90201FDF71BF88046FDF758F97E
:1033E000C0F5C770554951F820A05046FDF705F9C2
:1033F0000646534A534BFDF711F80446FDF7AAF968
:10340000AEE75846FDF763F90446514A514BFDF7C4
:1034100071F944D25846FDF75AF9454A454BCDE972
:103420000201FCF7FBFF804600221346FDF77AF904
:1034300012D85846FDF74BF93D4A3E4BCDE9000105
:10344000FCF7ECFF804600223B4BFCF740FFCDE948
:103450000201FDF71DF911E05846FDF738F9344A2D
:10346000344BCDE90001FCF7D9FF80460022324BF6
:10347000FCF7CEFFCDE90201FDF70AF9A0F5C77010
:103480002E4951F820A05046FDF7B7F806462C4AC1
:10349000314BFCF7C3FF0446FDF75CF960E7584683
:1034A000FDF715F98046224A224BFCF7B7FF0022B0
:1034B0001346CDE90201FDF735F912D85846FDF75C
:1034C00006F91B4A1B4BCDE90001FCF7A7FF80461C
:1034D0000022194BFCF7FBFECDE90201FDF7D8F8FD
:1034E00011E05846FDF7F3F88046114A114BFCF7FE
:1034F00095FF0022104BCDE90001FCF789FFCDE9D3
:103500000201FDF7C5F8C0F547700C4951F820A03D
:103510005046FDF772F80646094A0F4BFCF77EFF4E
:103520000446FDF717F91BE7F4D64354FB21F93F96
:103530009CA223B9FCAB5F400000E03F7849000843
:103540002D431CEBE2361A3FEA2E4454FB2109407E
:10355000320D337F7CD91240E2361ABF70B5044673
:1035600025462E460448A0EB6606354629462046E9
:10357000FCF73DFE70BD0000865A375F10B504466B
:103580000B48008800F4004088B10A4800784428BD
:1035900009D10848401CFCF7C5FD2070217806A021
:1035A000FFF734F800BF00BF00200149088010BDBC
:1035B000200000204000002064656275675F666C33
:1035C00061673D25640D0A00014642F228324A43F4
:1035D0004FF0E0235A6100229A611A46126942F0C4
:1035E00001021A6100BF4FF0E022106900F00102F1
:1035F0001AB100F48032002AF5D04FF0E0221269AF
:1036000022F001024FF0E0231A6100229A61704714
:10361000014601EBC1024FF0E0235A6100229A619A
:1036200001221A6100BF4FF0E022106900F0010290
:103630001AB100F48032002AF5D000224FF0E023C6
:103640001A619A6170472DE9F04104460D4694F9DC
:103650000C10A26801FB02F0FCF7C1FF804629466E
:10366000FCF7C5FD07462169FCF7BBFD0646FFF7E1
:1036700067FABDE8F08100002DE9F041C1F30A527C
:10368000A2F2FF362F4A304B0D460446142E2FDA95
:10369000002E12DAFCF71BFE00221346FDF742F85B
:1036A0004CD2002DA4BF0024254647DA25F0004067
:1036B000204318BF254D41D018E0DFF894C02CFA04
:1036C00006F705EA070C5CEA040C08BFBDE8F081C8
:1036D000FCF7FDFD00221346FDF724F82ED2002D45
:1036E00003DA4FF48010F0400544BD43002425E088
:1036F000332EC8BFBDE8F081A6F1140C4FF0FF37A0
:1037000027FA0CF73C4208BFBDE8F081FCF783FEC6
:1037100000221346FDF706F810D2002D0DDA142E04
:1037200008BF6D1C09D0C6F13400012101FA00F078
:103730002044A04238BF6D1C0446BC4329462046A5
:10374000BDE8F0819C7500883CE4377E0000F0BF46
:10375000FFFF0F002DE9F04114461D4606460F46B7
:10376000FDF7C7F900F07040B0F1005F0FD0201CEA
:1037700018BF0120284320F00040C0F17F6000F115
:10378000E040C00F02BF20462946BDE8F081304628
:103790003946BDE8F081000070B514461D460E465E
:1037A000002814BF01210021314321F00041C1F163
:1037B0007F6101F1E041C90F16D1002C14BF012136
:1037C0000021294321F00041C1F17F6101F1E04175
:1037D000C90F09D11449B1EB460F08BF00281CD00E
:1037E000690008BF002C18D03146FDF727F90246C2
:1037F00040F2FF7030EA11500DD0F017B0EBE17FCE
:1038000009D0084665F31E0084460B4620466146F3
:10381000FCF701FE0246104670BD0120FEF720FFB6
:10382000BDE87040FEF706BF0000E0FF00BF054A9C
:10383000128802F04002002AF9D0C2B2014B1B1DCF
:103840001A807047003801402DE9F04F85B082465C
:10385000DAF81800FDF7D6FB0446FCF7C9FE8346EC
:10386000DAF80C00FCF7BBFE04465946FCF7BCFC3A
:103870000490DAF80800FCF7C0FE0646294A2A4BF5
:10388000FCF7CCFD04460D460498FCF720FF21F020
:103890000041804622462B46FCF744FF19D2002106
:1038A0000498FCF77DFF02D22048214901E01F481F
:1038B000204980468946DAF81400FCF708FF0646DE
:1038C00042464B46FCF703FD0446FCF743FFCAF8AB
:1038D00014005846FCF7AFFECAF80C00DAF80800EE
:1038E000FCF77DFE014600905846FCF7B2FC0190C3
:1038F000FCF7EDFE0D4A0F4BCDE90201FCF78EFD02
:1039000004460D46DAF81400FCF7E1FE06462246AE
:103910002B46FCF7DCFC8046FCF71CFF05B0BDE83D
:10392000F08F00009A9999999999E93FEA2E4454A9
:10393000FB2119C0FB2119402DE9FF4704460D4624
:103940002846FCF7C4FE07460E4A0F4BFCF766FDFF
:1039500081468A462068FCF7BAFE07460B4A0C4BA4
:10396000FCF75CFD4A465346CDE90001FCF7AFFC8D
:10397000CDE90201FCF7EEFE06462660304604B0B3
:10398000BDE8F0879A9999999999B93FCDCCCCCC5B
:10399000CCCCEC3F2DE9F04F85B004468946674812
:1039A0000568606AA84212D9654A616A1268511AAC
:1039B0004819FCF733FE634A634BCDE90001FCF77D
:1039C0002DFDCDE90201FCF7C5FE06460EE0616A59
:1039D000681AFCF723FE5B4A5B4BCDE90001FCF75C
:1039E0001DFDCDE90201FCF7B5FE0646002130467B
:1039F000FCF7CCFE09D03046FCF769FE0022534BA1
:103A0000CDE90201FCF78EFE00D2514E65624946B7
:103A10002068FCF7ECFB82464846A169FCF78FFB67
:103A2000029031466068FCF7E2FB4FF07C51019058
:103A3000FCF7DDFB83460299FCF7D9FB0390216A72
:103A4000FCF77DFB0746206980F0004B394658465D
:103A5000FCF7A6FE03D2206980F0004007E038465C
:103A60002169FCF79DFE01D2206900E03846074637
:103A70004846A169FCF7B5FB0390A168FCF7B7FBCA
:103A800083463146FCF7E5FB049039465046FCF787
:103A900056FB83460499FCF752FB8046206980F070
:103AA000004B41465846FCF77BFE03D2206980F06C
:103AB000004007E040462169FCF772FE01D2206910
:103AC00000E0404680460021E068FCF769FE29D20C
:103AD0004046E169FCF785FB31460390FCF7B9FBF2
:103AE00083465846E168FCF75BFE09D23146E06840
:103AF000FCF77DFB0390E169FCF721FB804610E0B9
:103B0000E06880F0004059460390FCF749FE08D277
:103B10003146E068FCF76BFB0390E169FCF764FB5E
:103B2000804600BFC4F814A02762C4F81C80C4F803
:103B30001890404605B0BDE8F08F0000140000204A
:103B400018000020F168E388B5F8E43E0000E03F8B
:103B50006F12833A18B500BF0C8B04F00204002CDE
:103B6000FAD10C8844F480740C8000BF8C8A04F075
:103B70000104002CFAD0D0240C8200BF8C8A04F0FF
:103B80000204002CFAD00C8B009400BF8C8A04F045
:103B90008004002CFAD0088200BF8C8A04F08004D4
:103BA000002CFAD00C8844F480740C8000BF8C8AFE
:103BB00004F00104002CFAD0D1240C8200BF8C8ABE
:103BC00004F00204002CFAD00C8B00940C8844F40E
:103BD00080640C801DE0012A11D10C8824F48064DB
:103BE0000C800C8844F400740C8000BF8C8A04F0B4
:103BF0004004002CFAD00C8A03F8014B0BE000BF04
:103C00008C8A04F04004002CFAD00C8A03F8014B93
:103C1000521E002ADFD100BF0C8844F480640C805F
:103C200018BD0000ADF50E7DFDF7FFFC4FF4E1304F
:103C300000F04CFE4FF4B4604FF40061FD4A0423E1
:103C4000CDE90332CDE90510FB49581FFB4A126844
:103C5000CDE900200291FA480368FA480121026880
:103C600086A8FDF741FC4FF4B4604FF48051F14A4F
:103C70000423CDE90332CDE90510F349581FEF4A7B
:103C80001268CDE900200291ED480368ED48022159
:103C900002687EA8FDF728FCBDF832024190FDF7CE
:103CA00087FFBDF812024190FDF7E2FFFEF746F8EC
:103CB000E64B9A14012177A8FDF7F8FBE44B9A1420
:103CC000022170A8FDF7F2FBE2480068FCF7CCFC8B
:103CD00001464190DD48FDF729F9DE480068FCF710
:103CE000C3FC01464190DA48FDF720F9D8494BA8BA
:103CF000FDF730FA4BA8FDF726FA01464190D6A011
:103D0000FEF784FC4FF47A70FFF75EFC86A8FDF79F
:103D1000E3FB7EA8FDF7E0FBD3A0FEF777FC6FA8DE
:103D2000FDF70EFA6EA8FDF70BFA6CA8FDF708FA7E
:103D30006DA8FDF705FA6BA8FDF702FACE48002141
:103D40000B460A46CDE90010CC4961A8FDF79CFD61
:103D5000BB48006800210B464FF08242CDE90010BD
:103D60004FF0814157A8FDF78FFD00204A90499000
:103D70004890479046904590449043904290DDE1B2
:103D800077A8FFF761FD419070A8FFF75DFD4090B7
:103D900086A84199FFF757FC3F907EA84099FFF70E
:103DA00052FC3E904BA8FDF759FA52983390FCF71D
:103DB0008EFCB34AB34BCDE93401FCF729FBCDE9C6
:103DC0003601FCF7C7FC3D903D98FCF780FC21F0E4
:103DD0000041AD4AAD4BCDE93601FCF7A3FC11D251
:103DE0004298401C42904298B0F57A7F0CDD002149
:103DF00086A83F9A00F012FA00217EA83E9A00F0B1
:103E00000DFA9BE1002042906DA84A99FFF794FDBE
:103E10003C9000213C98FCF7E4F90146379061A8FA
:103E2000FFF7B8FD3B906CA83B99FFF785FD3A90F2
:103E30003A993D98FCF7D5F90146379057A8FFF716
:103E4000A9FD39906BA84999FFF776FD38907C4819
:103E5000006880F000403790DDE93810FCF7C1F9C8
:103E600036903799FCF792FC04D27548006880F0D0
:103E7000004011E0DDE93810FCF7B3F937907048E5
:103E800001683798FCF78CFC02D26D48006803E0AB
:103E9000DDE93810FCF7A5F948906948006880F022
:103EA00000403790399880F0004035903899FCF701
:103EB00098F936903799FCF769FC04D2604800689D
:103EC00080F0004017E0399880F000403690389933
:103ED000FCF787F937905A4801683798FCF760FC7F
:103EE00002D25748006806E0399880F000403790C9
:103EF0003899FCF776F9479086A83F9A489900F0E0
:103F00008DF97EA83E9A479900F088F93998FCF718
:103F1000DEFB21F00041CDE934014398FCF7D7FBEB
:103F2000CDE93201DDE93423FFF714FCCDE9360198
:103F3000FCF710FC43909DF81001002879D05448FC
:103F40000068379045993798884214D251480168E3
:103F50004598091A379808443190FCF75FFB4E4AA0
:103F60004E4BCDE93201FCF759FACDE93401FCF7AB
:103F7000F1FB369010E045993798401A3190FCF7E4
:103F80004DFB454A454BCDE93201FCF747FACDE9F7
:103F90003401FCF7DFFB36903798459046980028AF
:103FA0007ED14398FCF793FBCDE93401479880F02C
:103FB00000401990FCF78BFBCDE932014898FCF7E3
:103FC00086FBCDE930013998FCF781FBCDE92E0164
:103FD0003A98FCF77CFBCDE92C013B98FCF777FB8A
:103FE000CDE92A0154981990FCF771FBCDE928011D
:103FF00053981990FCF76BFBCDE926013D98FCF72F
:1040000066FBCDE924013898FCF761FBCDE922017C
:104010004998FCF75CFBCDE920013C98FCF757FB85
:10402000CDE91E014A98FCF752FBCDE91C013698F8
:1040300037E07BE0000801408FC2C540340000201B
:10404000300000202C0000205C8F423E00540040D5
:1040500000580040380000204D50552049443A2077
:1040600025780D0A000000004D6F746F7220726594
:104070006164792E0D0A0000CDCC4C3E0AD7233C5A
:104080009A9999999999A93FF4D64354FB21F93FFC
:104090001400002018000020F168E388B5F8E43E21
:1040A00040E0FCF714FBCDE91A01DDE93401CDE96C
:1040B0001801DDE93201CDE91601DDE93001CDE974
:1040C0001401DDE92E01CDE91201DDE92C01CDE974
:1040D0001001DDE92A01CDE90E01DDE92801CDE974
:1040E0000C01DDE92601CDE90A01DDE92401CDE974
:1040F0000801DDE92201CDE90601DDE92001CDE974
:104100000401DDE91E01CDE90201DDE91C01CDE973
:1041100000010B48DDE91A23FEF778FA00204390EE
:10412000642046904698401E469000BF49A94AA880
:1041300000F008F844A8FFF721FA00BF20E60000CD
:10414000204D00082DE9FF5F06468946FDF769FA14
:10415000002859D12D48FDF741FA2C4801784078C4
:1041600001EB002085B229488178C07801EB00205E
:1041700084B240F6C410844205DA40F2DC50844236
:1041800001DD4FF40064B4F5006F09D040F6C410AF
:10419000854205DA40F2DC50854201DD4FF40065CE
:1041A0001B480068FCF793FACDE90201C4F50060F2
:1041B000FCF723FA07460022164BFCF7A1F9CDE9DC
:1041C0000001DDE90223FCF729F98246FCF7C2FA77
:1041D000306011480068FCF77AFA07468846C5F552
:1041E0000060FCF70AFA824600220A4BFCF788F9C5
:1041F0003A464346CDE90001FCF710F9CDE902014A
:10420000FCF7A8FAC9F80000BDE8FF9F4C010020A8
:10421000240000200000A0402800002007B5A0B026
:1042200000212198FCF7B2FA17D22298FCF74FFA36
:10423000F84AF94BCDE91401FCF749F8CDE916012C
:10424000FCF788FA22902198FCF741FA21F000410E
:10425000CDE91601FCF77EFA21902298FCF737FA97
:10426000EE4AEF4BCDE91201FCF731F8CDE914012C
:10427000FCF770FA1790FEF763FC22902298FCF787
:1042800026FAE84AE84BCDE91001FCF7C7F8CDE97A
:104290001201FFF7F1F90022E44BCDE91401FCF71C
:1042A00016F8CDE91601FCF7F3F91E902098006886
:1042B0001190FCF70CFACDE914012198FCF707FAEC
:1042C000CDE910012298FCF702FACDE906011E980B
:1042D000FCF793F9D64AD74BCDE90201FCF79EF8DB
:1042E000CDE90401DDE90623FCF792F8CDE90801E8
:1042F000FCF730FA0A90FEF7E5FF0B90FCF7E7F9C0
:10430000CD4ACE4BCDE90C01FCF788F8CDE90E0182
:10431000DDE91023FCF782F8CDE91201DDE9142371
:10432000FCF77CF8CDE91601FCF714FA1D902098F3
:1043300000681190FCF7CBF9CDE914012198FCF746
:10434000C6F9CDE910011E98FCF757F90022B74BCA
:10435000CDE90001FCF75CF8B54AB64BCDE90201A6
:10436000FCF75CF8CDE906012298FCF7B0F9CDE93D
:104370000401DDE90623FCF74BF8CDE90801FCF761
:10438000E9F90A90FEF79EFF0B90FCF7A0F9AA4A04
:10439000AA4BCDE90C01FCF741F8CDE90E01DDE9AE
:1043A0001023FCF73BF8CDE91201DDE91423FCF7FB
:1043B00035F8CDE91601FCF7CDF91C904FF07E5091
:1043C0001D99FBF70EFF17901C99FBF70AFF1B9036
:1043D0001E9807287ED2DFE800F07D044990D5FEC4
:1043E000FD001B98FCF773F90022954BCDE91001F5
:1043F000FCF714F8CDE91401DDE91C10FBF79FFE72
:104400001190FCF764F9CDE91201DDE91423FBF703
:104410005EFFCDE91601FCF79DF91A901B98FCF799
:1044200056F90022864BCDE91001FBF7F7FFCDE9E5
:1044300014011C98FCF74BF9CDE91201DDE91423B6
:10444000FBF745FFCDE91601FCF784F919901B989D
:10445000FCF73DF900227A4BCDE91401FBF7DEFFB2
:10446000CDE91601FCF776F918907AE11B98FCF774
:104470002EF90022724BCDE91001FBF7CFFFCDE9F9
:1044800014011D98FCF723F9CDE91201DDE914238D
:10449000FBF71DFFCDE91601FCF75CF91A901B989C
:1044A000FCF715F90022664BCDE91001FBF7B6FFCA
:1044B000CDE91401DDE91C10FBF741FE1190FCF77A
:1044C00006F9CDE91201DDE91423FBF700FFCDE980
:1044D000160100E040E1FCF73DF919901B98FCF74C
:1044E000F6F80022564BCDE91401FBF797FFCDE912
:1044F0001601FCF72FF9189033E11B98FCF7E7F849
:1045000000224F4BCDE91401FBF788FFCDE91601DE
:10451000FCF720F91A901B98FCF7D9F80022484BB9
:10452000CDE91001FBF77AFFCDE91401DDE91C109C
:10453000FBF705FE1190FCF7CAF8CDE91201DDE9A1
:104540001423FBF7C4FECDE91601FCF703F919901B
:104550001B98FCF7BCF80022394BCDE91001FBF7A2
:104560005DFFCDE914011C98FCF7B1F8CDE912010B
:10457000DDE91423FBF7ABFECDE91601FCF7EAF801
:104580001890EEE01B98FCF7A2F800222C4BCDE926
:104590001401FBF743FFCDE91601FCF7DBF81A9095
:1045A0001B98FCF794F80022254BCDE91001FBF78E
:1045B00035FFCDE914011D98FCF789F8CDE912010A
:1045C000DDE91423FBF783FECDE91601FCF7C2F801
:1045D000199001E07BE035E01B98FCF778F80022A9
:1045E000174BCDE91001FBF719FFCDE91401DDE907
:1045F0001C10FBF7A4FD1190FCF769F8CDE912013E
:10460000DDE91423FBF763FECDE91601FCF7A2F800
:104610001890A6E0EA2E4454FB210940F4D64354F6
:10462000FB21F93F16E562A4C88EEE3F0000F03F83
:1046300040AF2D3852C1F03F6B6058E87AB6FB3F6F
:104640000000E03F1B98FCF742F800229D4BCDE9AB
:104650001001FBF7E3FECDE914011C98FCF737F8D5
:10466000CDE91201DDE91423FBF731FECDE9160196
:10467000FCF770F81A901B98FCF729F80022914B70
:10468000CDE91401FBF7CAFECDE91601FCF762F88B
:1046900019901B98FCF71BF800228A4BCDE91001FA
:1046A000FBF7BCFECDE91401DDE91C10FBF747FD6B
:1046B0001190FCF70CF8CDE91201DDE91423FBF7AA
:1046C00006FECDE91601FCF745F8189049E01B9865
:1046D000FBF7FDFF00227B4BCDE91001FBF79EFEAF
:1046E000CDE91401DDE91C10FBF729FD1190FBF762
:1046F000EEFFCDE91201DDE91423FBF7E8FDCDE97A
:104700001601FCF727F81A901B98FBF7E0FF002230
:104710006C4BCDE91401FBF781FECDE91601FCF7E6
:1047200019F819901B98FBF7D2FF0022654BCDE9D1
:104730001001FBF773FECDE914011D98FBF7C7FFCD
:10474000CDE91201DDE91423FBF7C1FDCDE9160126
:10475000FCF700F8189004E000201A9019901890C7
:1047600000BF00BF00211A98FCF710F801D200200A
:1047700009E04FF07E511A98FCF712F802D24FF080
:104780007E5000E01A981A9000211998FBF7FEFF5E
:1047900001D2002009E04FF07E511998FCF700F893
:1047A00002D24FF07E5000E019981990002118981D
:1047B000FBF7ECFF01D2002009E04FF07E51189882
:1047C000FBF7EEFF02D24FF07E5000E018981890F1
:1047D0002098007F012839D12098408B1490FBF756
:1047E00007FF15901A99FBF702FD1690FBF73CFFA7
:1047F00080B2014617904FF08040FDF764FD20988D
:10480000408B1490FBF7F4FE15901999FBF7EFFC21
:104810001690FBF729FF80B2014617904FF08040B9
:10482000FDF753FD2098408B1490FBF7E1FE1590A7
:104830001899FBF7DCFC1690FBF716FF80B20146D7
:1048400017904FF08040FDF742FD39E02098007F3F
:10485000022835D12098408B1490FBF7C9FE1590A3
:104860001A99FBF7C4FC1690FBF7FEFE80B20146D6
:1048700017901548FDF729FD2098408B1490FBF701
:10488000B7FE15901999FBF7B2FC1690FBF7ECFEFA
:1048900080B2014617900C48FDF719FD2098408B17
:1048A0001490FBF7A5FE15901899FBF7A0FC169045
:1048B000FBF7DAFE80B2014617900348FDF709FDC9
:1048C00023B000BD0000E03F0004004010B586B0FA
:1048D0000446012144F20400FDF704F84FF400708F
:1048E000ADF8140003208DF8160018208DF817007D
:1048F00005A91C48FCF7A4F94FF48060ADF814003A
:1049000004208DF8170005A91648FCF799F9252011
:104910008DF8000003208DF801008DF802000120C1
:104920008DF803006846FCF777FF01940020ADF88E
:104930000800ADF80A00ADF80C00ADF810000C202E
:10494000ADF80E0001A90848FDF7BEFD012240F2B6
:1049500025510548FDF792FD01210348FDF758FD5B
:1049600006B010BD0008014000380140FFFFFFFF06
:10497000FFFFFFFFFFFF0000000000004F000000EE
:104980009E000000ED0000003C0100008B010000D3
:10499000D90100002802000077020000C6020000D2
:1049A0001503000063030000B203000000040000D0
:1049B0004F0400009D040000EC0400003A050000D4
:1049C00088050000D60500002406000072060000DD
:1049D000C00600000E0700005B070000A9070000EA
:1049E000F60700004308000090080000DD08000002
:1049F0002A09000077090000C30900000F0A00001F
:104A00005C0A0000A80A0000F40A00003F0B000046
:104A10008B0B0000D60B0000210C00006C0C00007A
:104A2000B70C0000010D00004C0D0000960D0000B9
:104A3000E00D0000290E0000730E0000BC0E000007
:104A4000050F00004E0F0000960F0000DF0F000062
:104A5000271000006E100000B6100000FD100000CE
:104A6000441100008B110000D1110000171200004A
:104A70005D120000A2120000E81200002D130000D9
:104A800071130000B6130000F91300003D1400007C
:104A900081140000C4140000061500004915000030
:104AA0008B150000CC1500000E1600004F160000FC
:104AB0008F160000CF1600000F1700004F170000E0
:104AC0008E170000CD1700000B18000049180000D9
:104AD00087180000C4180000011900003D190000EB
:104AE00079190000B5190000F01900002B1A000018
:104AF000661A00009F1A0000D91A0000121B00005D
:104B00004B1B0000831B0000BB1B0000F21B0000BE
:104B1000291C0000601C0000961C0000CB1C00003B
:104B2000001D0000351D0000691D00009D1D0000D6
:104B3000D01D0000031E0000351E0000671E00008F
:104B4000981E0000C91E0000FA1E0000291F000068
:104B5000591F0000881F0000B61F0000E41F00005E
:104B6000112000003E2000006A2000009620000076
:104B7000C1200000EC2000001621000040210000B0
:104B80006921000092210000BA210000E12100000B
:104B9000082200002F220000552200007A22000087
:104BA0009F220000C3220000E72200000A23000029
:104BB0002D2300004F2300007023000091230000EC
:104BC000B2230000D1230000F12300000F240000D5
:104BD0002D2400004B2400006824000084240000E1
:104BE000A0240000BB240000D5240000EF24000016
:104BF00009250000222500003A250000522500006A
:104C0000692500007F25000095250000AA250000E9
:104C1000BF250000D3250000E6250000F92500008F
:104C20000B2600001D2600002E2600003E26000058
:104C30004E2600005D2600006C2600007A2600004B
:104C40008726000094260000A0260000AB26000066
:104C5000B6260000C0260000CA260000D3260000A9
:104C6000DB260000E3260000EA260000F126000013
:104C7000F7260000FC2600000127000005270000A1
:104C8000082700000B2700000D2700000F27000059
:104C900010270000102700000040404040404040E6
:104CA00040404141414141404040404040404040FF
:104CB00040404040404040404005020202020202A3
:104CC00002020202020202020220202020202020F2
:104CD0002020200202020202020290909090909006
:104CE00010101010101010101010101010101010C4
:104CF0001010101002020202020288888888888838
:104D00000808080808080808080808080808080823
:104D1000080808080202020240000000994C00083E
:104D2000252E35662C20252E34662C20252E346623
:104D30002C20252E34662C20252E34662C20252E62
:104D400034662C20252E34662C20252E34662C200B
:104D5000252E34662C20252E34662C0920252E3451
:104D6000662C20252E34662C20252E34662C2025FA
:104D70002E34660D0A000000984D00080000002047
:104D80004000000040260008D84D000840000020E8
:104D90003005000050260008000000000102030456
:104DA00001020304060708090204060800000000C7
:104DB000FFFFFFFF00000000000000000000A04116
:104DC000C3F5A83E00000041000000400000E040A4
:084DD0000050C3480000000080
:04000005080000ED02
:00000001FF
